:020000040800F2
:100000000028002011180008A1170008A7170008F1
:10001000AD170008B3170008B9170008000000006A
:10002000000000000000000000000000BF170008F2
:10003000CB17000800000000D7170008E3170008DE
:1000400059180008591800085918000859180008CC
:1000500059180008591800085918000859180008BC
:1000600059180008591800085918000859180008AC
:10007000591800085918000859180008591800089C
:10008000591800085918000859180008591800088C
:10009000591800085918000859180008591800087C
:1000A000591800085918000859180008591800086C
:1000B000F11700085918000800000000591800083E
:1000C000591800080000000000000000591800083E
:1000D000000000005918000859180008000000002E
:1000E00059180008591800085918000800000000A5
:1000F0000000000000000000000000000000000000
:0C01000000000000000000005FF808F1A3
:10010C0010B5054C237833B9044B13B10448AFF345
:10011C0000800123237010BD54000020000000005B
:10012C00702E000808B5034B1BB103490348AFF30D
:10013C00008008BD0000000058000020702E000850
:10014C0080B400AF064B1B68012B04D1044B00227A
:10015C001A60012300E000231846BD4680BC70479E
:10016C007000002080B400AF064B1B68012B04D13B
:10017C00044B00221A60012300E000231846BD4600
:10018C0080BC70477400002080B400AF064B1B6825
:10019C00012B04D1044B00221A60012300E0002340
:1001AC001846BD4680BC70477800002080B400AF74
:1001BC00034B01221A6000BFBD4680BC704700BFD4
:1001CC007000002080B400AF034B01221A6000BF06
:1001DC00BD4680BC704700BF7400002080B400AFE7
:1001EC00034B01221A6000BFBD4680BC704700BFA4
:1001FC007800002080B500AF204B1B68204A1360AC
:10020C00204B1B681D4A13604FF400511E4801F02F
:10021C0009FE03461A461B4B1A60194B1A68174BFA
:10022C001B689A4228D1154B1A68164B1B689A42C8
:10023C0022D1164B1A68134B1B689A420AD0114BE9
:10024C001B68124A13600F4B1B68002B14D1FFF76D
:10025C00ADFF11E00E4B1B68013B0D4A13600C4BBC
:10026C001B68002B08D10A4BC8221A60054B1B686F
:10027C00002B01D1FFF79AFF00BF80BD04000020C6
:10028C000000002008000020001001400C0000209D
:10029C001000002080B500AF204B1B68204A136073
:1002AC00204B1B681D4A13604FF480411E4801F01F
:1002BC00B9FD03461A461B4B1A60194B1A68174BAB
:1002CC001B689A4228D1154B1A68164B1B689A4228
:1002DC0022D1164B1A68134B1B689A420AD0114B49
:1002EC001B68124A13600F4B1B68002B14D1FFF7CD
:1002FC0069FF11E00E4B1B68013B0D4A13600C4B60
:10030C001B68002B08D10A4BC8221A60054B1B68CE
:10031C00002B01D1FFF756FF00BF80BD1800002055
:10032C00140000201C0000200010014020000020C0
:10033C002400002080B500AF204B1B68204A1360BE
:10034C00204B1B681D4A13604FF400411E4801F0FE
:10035C0069FD03461A461B4B1A60194B1A68174B5A
:10036C001B689A4228D1154B1A68164B1B689A4287
:10037C0022D1164B1A68134B1B689A420AD0114BA8
:10038C001B68124A13600F4B1B68002B14D1FFF72C
:10039C0025FF11E00E4B1B68013B0D4A13600C4B03
:1003AC001B68002B08D10A4BC8221A60054B1B682E
:1003BC00002B01D1FFF712FF00BF80BD2C000020E5
:1003CC0028000020300000200010014034000020E4
:1003DC003800002080B500AFFFF70CFFFFF75AFF85
:1003EC00FFF7A8FF00BF80BD80B582B000AF78607A
:1003FC007B68092B00F2808101A252F823F000BF28
:10040C00350400087D040008C50400080D0500082B
:10041C00550500089D050008E50500082D06000897
:10042C0075060008BD06000800220121B54801F040
:10043C0010FD00220221B34801F00BFD0022042123
:10044C00B04801F006FD00220821AE4801F001FD84
:10045C0000221021AB4801F0FCFC00222021A9480D
:10046C0001F0F7FC01224021A64801F0F2FC44E126
:10047C0001220121A34801F0ECFC00220221A14839
:10048C0001F0E7FC002204219E4801F0E2FC01226D
:10049C0008219C4801F0DDFC01221021994801F053
:1004AC00D8FC01222021974801F0D3FC01224021E5
:1004BC00944801F0CEFC20E100220121914801F08A
:1004CC00C8FC002202218F4801F0C3FC0122042148
:1004DC008C4801F0BEFC002208218A4801F0B9FCCE
:1004EC0000221021874801F0B4FC0122202185480C
:1004FC0001F0AFFC00224021824801F0AAFCFCE094
:10050C00002201217F4801F0A4FC002202217D4839
:10051C0001F09FFC002204217A4801F09AFC002291
:10052C000821784801F095FC01221021754801F052
:10053C0090FC01222021734801F08BFC0022402109
:10054C00704801F086FCD8E0012201216D4801F0D1
:10055C0080FC002202216B4801F07BFC002204216C
:10056C00684801F076FC01220821664801F071FC14
:10057C0001221021634801F06CFC0022202161480B
:10058C0001F067FC002240215E4801F062FCB4E0FF
:10059C00002201215B4801F05CFC01220221594838
:1005AC0001F057FC00220421564801F052FC0022B5
:1005BC000821544801F04DFC01221021514801F052
:1005CC0048FC002220214F4801F043FC002240212E
:1005DC004C4801F03EFC90E000220121494801F01A
:1005EC0038FC01220221474801F033FC002204218F
:1005FC00444801F02EFC00220821424801F029FC5D
:10060C00002210213F4801F024FC002220213D480B
:10061C0001F01FFC002240213A4801F01AFC6CE06A
:10062C0000220121374801F014FC00220221354838
:10063C0001F00FFC00220421324801F00AFC0122D7
:10064C000821304801F005FC012210212D4801F051
:10065C0000FC012220212B4801F0FBFB0122402150
:10066C00284801F0F6FB48E000220121254801F062
:10067C00F0FB00220221234801F0EBFB00220421B5
:10068C00204801F0E6FB002208211E4801F0E1FBA6
:10069C00002210211B4801F0DCFB0022202119480C
:1006AC0001F0D7FB00224021164801F0D2FB24E0D8
:1006BC0000220121134801F0CCFB00220221114839
:1006CC0001F0C7FB002204210E4801F0C2FB0022FE
:1006DC0008210C4801F0BDFB01221021094801F052
:1006EC00B8FB00222021074801F0B3FB0022402177
:1006FC00044801F0AEFB00E000BF00BF0837BD4668
:10070C0080BD00BF000C014080B500AF00224FF44B
:10071C008061084801F09DFB01224FF4805105488F
:10072C0001F097FB01224FF40061024801F091FBAC
:10073C0000BF80BD000C014080B500AF00224FF41B
:10074C000051084801F085FB01224FF40041054897
:10075C0001F07FFB01224FF48041024801F079FB4C
:10076C0000BF80BD000C014080B500AF01224FF4EA
:10077C008061084801F06DFB00224FF48051054860
:10078C0001F067FB01224FF40061024801F061FBAC
:10079C0000BF80BD000C014080B500AF01224FF4BA
:1007AC000051084801F055FB00224FF40041054868
:1007BC0001F04FFB01224FF48041024801F049FB4C
:1007CC0000BF80BD000C014080B500AF01224FF48A
:1007DC008061084801F03DFB01224FF4805105482F
:1007EC0001F037FB00224FF40061024801F031FBAD
:1007FC0000BF80BD000C014080B500AF01224FF45A
:10080C000051084801F025FB01224FF40041054836
:10081C0001F01FFB00224FF48041024801F019FB4C
:10082C0000BF80BD000C014080B582B000AF786085
:10083C007B680E2B13D07B680E2B15DC7B680C2B86
:10084C0003D07B680D2B05D00EE0FFF75DFFFFF7A3
:10085C0073FF0AE0FFF788FFFFF79EFF05E0FFF745
:10086C00B3FFFFF7C9FF00E000BF00BF0837BD466C
:10087C0080BD000080B582B000AF78607B681B68DB
:10088C00032B7BD801A252F823F000BFA908000863
:10089C00E10800081909000851090008404B1B68C1
:1008AC001846FFF7A1FD002240213E4801F0D1FA85
:1008BC00012280213B4801F0CCFA01224FF48071D7
:1008CC00384801F0C6FA01224FF40071354801F0A6
:1008DC00C0FA54E0324B5B681846FFF785FD0122E5
:1008EC004021304801F0B5FA002280212D4801F05A
:1008FC00B0FA01224FF480712A4801F0AAFA0122C1
:10090C004FF40071274801F0A4FA38E0244B9B689F
:10091C001846FFF769FD01224021224801F099FA9F
:10092C00012280211F4801F094FA00224FF48071BB
:10093C001C4801F08EFA01224FF40071194801F0A5
:10094C0088FA1CE0164BDB681846FFF74DFD0122B8
:10095C004021144801F07DFA01228021114801F058
:10096C0078FA01224FF480710E4801F072FA0022DD
:10097C004FF400710B4801F06CFA00E000BF7B688B
:10098C001B68022B03DD7B6800221A6004E07B6885
:10099C001B685A1C7B681A6000BF0837BD4680BDB7
:1009AC007C0000200008014080B483B000AF786068
:1009BC007B68023B032B00F2958001A252F823F0D6
:1009CC00DD090008150A0008570A00088F0A0008FC
:1009DC00484B1A68484B1B68D31A484A1360474B5C
:1009EC001B68464A9360464B1A68434B1B68D31AE4
:1009FC00424A5360414B5B68404AD3603E4B1B6894
:100A0C0001333D4A136070E03A4B1A683A4B1B684D
:100A1C00D31A3A4A1360394B1B68384A9360394BE6
:100A2C001A68394B1B68D31A344A5360334B5B68D2
:100A3C00324AD360304B1B6801332F4A1360324B60
:100A4C001B680133304A13604FE02D4B1A682F4B53
:100A5C001B68D31A294A1360284B1B68274A9360DA
:100A6C00244B1A68294B1B68D31A244A5360234B16
:100A7C005B68224AD360254B1B680133234A136001
:100A8C0033E01C4B1A68214B1B68D31A1B4A53606A
:100A9C001A4B5B68194AD3601A4B1A681C4B1B68BB
:100AAC00D31A164A1360154B1B68144A9360174BE4
:100ABC001B680133154A1360154B1B680133144A2C
:100ACC0013600E4B1B68012B0EDC0B4B00221A60C3
:100ADC000D4B00221A600D4B00221A600C4B0022A9
:100AEC001A6001E000BF00E000BF00BF0C37BD463C
:100AFC0080BC704740000020900000207C0000204B
:100B0C003C000020440000209400002098000020AD
:100B1C009C00002080B400AF114B02221A60104BD5
:100B2C0002225A600F4B1B680F4A82FB0312921071
:100B3C00DB17D31A0A4A93600A4B19680A4B83FBDA
:100B4C0001239A10CB17D21A13469B0013445B0057
:100B5C00CA1A034BDA6000BFBD4680BC704700BFA9
:100B6C007C000020400000206766666680B400AF01
:100B7C00114B03221A60104B03225A600F4B1B6857
:100B8C000F4A82FB03129210DB17D31A0A4A9360A6
:100B9C000A4B19680A4B83FB01239A10CB17D21A04
:100BAC0013469B0013445B00CA1A034BDA6000BF68
:100BBC00BD4680BC704700BF7C0000204400002074
:100BCC006766666680B400AF114B04221A60104B46
:100BDC0004225A600F4B1B680F4A82FB03129210BF
:100BEC00DB17D31A0A4A93600A4B19680A4B83FB2A
:100BFC0001239A10CB17D21A13469B0013445B00A7
:100C0C00CA1A034BDA6000BFBD4680BC704700BFF8
:100C1C007C0000203C0000206766666680B500AF53
:100C2C009A4B1B68013B052B00F2248101A252F860
:100C3C0023F000BF590C0008CF0C00083D0D000834
:100C4C00A90D0008150E0008A90C00088F4B0622F0
:100C5C001A6000224FF480618D4801F0FAF80022EE
:100C6C004FF480518A4801F0F4F800224FF40061EF
:100C7C00874801F0EEF800224FF40051844801F04F
:100C8C00E8F800224FF40041814801F0E2F800221C
:100C9C004FF480417E4801F0DCF8F4E07B4B0222FB
:100CAC001A607C4B1B684FF47A7202FB03F31846F4
:100CBC0000F00CFC0A2000F025FC0A2000F03EFCA1
:100CCC00E1E0FFF721FDFFF767FD734B1B68012B7C
:100CDC000BD16E4B03221A60704B1B684FF47A7267
:100CEC0002FB03F3184600F0F1FB6D4B1B68012B64
:100CFC0008D1664B1B681846FFF756FE4FF47A7006
:100D0C0000F000FC674B1B68012B07D1664B1B687E
:100D1C001846FFF7AFFD642000F010FCFFF710FA47
:100D2C000346012B40F0A880584B07221A60A3E021
:100D3C00FFF7EAFCFFF760FD574B1B68012B0BD14B
:100D4C00524B04221A60534B1B684FF47A7202FB0D
:100D5C0003F3184600F0BAFB514B1B68012B08D16A
:100D6C004FF47A7000F0CEFB484B1B681846FFF727
:100D7C001BFE4C4B1B68012B07D14B4B1B681846B9
:100D8C00FFF778FD642000F0D9FBFFF7D9F9034693
:100D9C00012B73D13D4B07221A606FE0FFF7E4FC87
:100DAC00FFF7CAFC3C4B1B68012B0BD1374B0522C0
:100DBC001A603A4B1B684FF47A7202FB03F3184625
:100DCC0000F084FB364B1B68012B08D12F4B1B68A2
:100DDC001846FFF7E9FD4FF47A7000F093FB314BA6
:100DEC001B68012B07D1642000F0A8FB2E4B1B685D
:100DFC001846FFF73FFDFFF7A3F90346012B3FD140
:100E0C00224B07221A603BE0FFF7DEFCFFF794FC55
:100E1C00214B1B68012B0BD11C4B02221A601D4B62
:100E2C001B684FF47A7202FB03F3184600F04EFB7A
:100E3C001B4B1B68012B08D14FF47A7000F062FB3E
:100E4C00124B1B681846FFF7AFFD164B1B68012BA6
:100E5C0007D1642000F072FB134B1B681846FFF798
:100E6C0009FDFFF76DF90346012B0BD1074B072248
:100E7C001A6007E000BF06E000BF04E000BF02E01C
:100E8C0000BF00E000BF00BF80BD00BFA00000207D
:100E9C00000C01403C000020A80000204400002071
:100EAC00B0000020B80000208C00002080B500AFFE
:100EBC00AA4B1B68073B0A2B00F2C58101A252F812
:100ECC0023F000BFFD0E00080D1000082F110008C4
:100EDC0053120008531200088F0F0008DB11000892
:100EEC009F100008370F00088511000847100008F4
:100EFC000C20FFF799FC9A4B00221A60FFF70AFEB0
:100F0C00974B1B681846FFF7B5FC4FF4FA7000F0CE
:100F1C0015FB4FF4FA7000F02DFB00F0C5FB00F050
:100F2C00D3FB8E4B0F221A609AE18E4B1B68012B60
:100F3C0006D14FF4FA7000F01DFB0C20FFF774FC87
:100F4C00894B1B68012B0AD14FF4FA7000F0F6FAAA
:100F5C00FFF7E0FD824B1B681846FFF78BFCFFF791
:100F6C00EFF80346012B02D17C4B08221A60FFF7E5
:100F7C00F9F80346012B40F06881784B0C221A607B
:100F8C0063E1784B1B68012B06D14FF4FA7000F02B
:100F9C00F1FA0C20FFF748FC734B1B68012B0AD1AC
:100FAC004FF4FA7000F0CAFAFFF7B4FD6C4B1B68F3
:100FBC001846FFF75FFCFFF7D5F80346012B0ED15F
:100FCC006A4B1B68622B05DD694B1B680133674A52
:100FDC00136004E0654B1B680133644A1360FFF730
:100FEC00D3F80346012B40F032815C4B0F221A6080
:100FFC005E4B1A685E4B1B68D31A5E4A136026E17F
:10100C000E20FFF711FC564B00221A60FFF782FDF1
:10101C00534B1B681846FFF72DFC4FF4FA7000F089
:10102C008DFA4FF4FA7000F0A5FA00F03DFB00F0D9
:10103C004BFB4A4B11221A6012E14A4B1B68012BE5
:10104C0006D14FF4FA7000F095FA0E20FFF7ECFB86
:10105C00454B1B68012B0AD14FF4FA7000F06EFA65
:10106C00FFF784FD3E4B1B681846FFF703FCFFF7A8
:10107C0067F80346012B02D1384B09221A60FFF79F
:10108C0071F80346012B40F0E480344B0E221A60B9
:10109C00DFE0344B1B68012B06D14FF4FA7000F0E3
:1010AC0069FA0E20FFF7C0FB2F4B1B68012B0AD1EE
:1010BC004FF4FA7000F042FAFFF758FD284B1B680A
:1010CC001846FFF7D7FBFFF74DF80346012B0CD161
:1010DC00274B1B68622B03DD254B01221A6004E0B1
:1010EC00234B1B680133224A1360FFF74DF803466C
:1010FC00012B40F0B080194B11221A601B4B1A685F
:10110C001B4B1B689A4204DC194B1B680133174AB2
:10111C001360164B1A68164B1B68D31A154A1360CA
:10112C0099E00D20FFF780FB0D4B00221A60FFF7B2
:10113C00F1FC0B4B1B681846FFF79CFB4FF4FA7045
:10114C0000F0FCF94FF4FA7000F014FA00F0ACFA6D
:10115C0000F0BAFA014B10221A6081E0A0000020C6
:10116C008C000020C0000020B800002040000020AF
:10117C00440000203C0000203A4B1B68012B06D198
:10118C004FF4FA7000F0F6F90D20FFF74DFB364BDB
:10119C001B68012B0AD14FF4FA7000F0CFF9FFF75E
:1011AC0011FD324B1B681846FFF764FBFEF7C8FFB6
:1011BC000346012B02D12E4B06221A60FEF7D2FFFA
:1011CC000346012B49D12A4B0D221A6045E0254BD1
:1011DC001B68012B06D14FF4FA7000F0CBF90D20EF
:1011EC00FFF722FB204B1B68012B0AD14FF4FA703E
:1011FC0000F0A4F9FFF7E6FC1C4B1B681846FFF740
:10120C0039FBFEF7AFFF0346012B0CD1194B1B68C2
:10121C00622B03DD174B01221A6004E0154B1B688F
:10122C000133144A1360FEF7AFFF0346012B16D1AE
:10123C000F4B10221A600F4B1A680F4B1B6813448C
:10124C000E4A13600BE000BF0AE000BF08E000BFCD
:10125C0006E000BF04E000BF02E000BF00E000BFFA
:10126C0000BF80BDC0000020B80000208C00002012
:10127C00A00000203C000020440000204000002082
:10128C0080B500AF00F0E4FA00F014F800F09AF822
:10129C0000F04CF8054801F021FA054B01221A60C8
:1012AC00FFF704FEFFF7BAFCFAE700BFD4000020FA
:1012BC00A000002080B590B000AF07F118032822E1
:1012CC000021184601F0C6FD3B1D00221A605A6031
:1012DC009A60DA601A610223BB610123BB6210239E
:1012EC00FB6200237B6307F11803184600F0CAFD6C
:1012FC000346002B01D000F0E3F80F237B600023A2
:10130C00BB600023FB6000233B6100237B613B1D22
:10131C000021184601F036F80346002B01D000F0EE
:10132C00CFF800BF4037BD4680BD000080B586B009
:10133C0000AF07F1080300221A605A609A60DA6065
:10134C003B4600221A605A601D4B4FF080421A60D7
:10135C001B4B41F63F725A60194B00229A60184B96
:10136C000922DA60164B00221A61154B00229A6191
:10137C00134801F063F90346002B01D000F0A0F8EC
:10138C004FF48053BB6007F1080319460C4801F079
:10139C00F9FA0346002B01D000F092F800233B60D1
:1013AC0000237B603B461946054801F0C5FC03460B
:1013BC00002B01D000F084F800BF1837BD4680BD6B
:1013CC00D400002080B588B000AF07F110030022D4
:1013DC001A605A609A60DA602F4B9B692E4A43F070
:1013EC00100393612C4B9B6903F01003FB60FB68AB
:1013FC00294B9B69284A43F004039361264B9B6954
:10140C0003F00403BB60BB68234B9B69224A43F087
:10141C0008039361204B9B6903F008037B607B6896
:10142C0000224FF470711D4800F013FD00224FF69E
:10143C007F411B4800F00DFD4FF460433B610023DE
:10144C007B610123BB6107F110031946154800F0BD
:10145C006FFB4FF470733B6101237B610023BB6115
:10146C000223FB6107F1100319460C4800F060FBE6
:10147C004FF67F433B6101237B610023BB61022359
:10148C00FB6107F110031946054800F051FB00BF42
:10149C002037BD4680BD00BF00100240000801404F
:1014AC00000C01400010014080B582B000AF7860A4
:1014BC0000F07CF8FEF78EFF00BF0837BD4680BDFC
:1014CC0080B400AF72B600BFFEE7000080B483B0FA
:1014DC0000AF78607B68084A82FB03129210DB171E
:1014EC00D31A064A1360064B00221A6000BF0C3751
:1014FC00BD4680BC704700BF67666666A4000020CE
:10150C00A800002080B483B000AF78607B68084AE4
:10151C0082FB03129210DB17D31A064A1360064B98
:10152C0000221A6000BF0C37BD4680BC704700BF5C
:10153C0067666666AC000020B000002080B483B003
:10154C0000AF78607B68084A82FB03129210DB17AD
:10155C00D31A064A1360064B00221A6000BF0C37E0
:10156C00BD4680BC704700BF67666666B40000204D
:10157C00B800002080B483B000AF78607B68084A64
:10158C0082FB03129210DB17D31A064A1360064B28
:10159C0000221A6000BF0C37BD4680BC704700BFEC
:1015AC0067666666BC000020C000002080B400AFF7
:1015BC00314B1B68002B0BDD2F4B1B68013B2E4A5C
:1015CC0013602D4B1B68002B02DC2C4B01221A6084
:1015DC002B4B1B68002B0BDD294B1B68013B284A4E
:1015EC001360274B1B68002B02DC264B01221A6070
:1015FC00254B1B68002B0BDD234B1B68013B224A40
:10160C001360214B1B68002B02DC204B01221A605B
:10161C001F4B1B68002B0BDD1D4B1B68013B1C4A31
:10162C0013601B4B1B68002B02DC1A4B01221A6047
:10163C00194B1B68002B0BDD174B1B68013B164A23
:10164C001360154B1B68002B02DC144B01221A6033
:10165C00134B1B68002B0BDD114B1B68013B104A15
:10166C0013600F4B1B68002B02DC0E4B01221A601F
:10167C0000BFBD4680BC7047A4000020A80000201D
:10168C00AC000020B0000020B4000020B800002006
:10169C00BC000020C0000020C4000020C8000020B6
:1016AC00CC000020D000002080B400AF044B0022FE
:1016BC001A60044B00221A6000BFBD4680BC704704
:1016CC00A8000020A400002080B400AF044B00222E
:1016DC001A60044B00221A6000BFBD4680BC7047E4
:1016EC00B0000020AC00002080B485B000AF154BDA
:1016FC009B69144A43F001039361124B9B6903F0FD
:10170C000103BB60BB680F4BDB690E4A43F080538F
:10171C00D3610C4BDB6903F080537B607B680A4B15
:10172C005B68FB60FB6823F0E063FB60FB6843F0E5
:10173C008063FB60044AFB68536000BF1437BD46EE
:10174C0080BC7047001002400000014080B584B09E
:10175C0000AF78607B681B68B3F1804F13D10C4BE2
:10176C00DB690B4A43F00103D361094BDB6903F0DE
:10177C000103FB60FB68002200211C2000F0A1F992
:10178C001C2000F0BAF900BF1037BD4680BD00BF69
:10179C000010024080B400AFFEE780B400AFFEE75B
:1017AC0080B400AFFEE780B400AFFEE780B400AFBA
:1017BC00FEE780B400AF00BFBD4680BC704780B46C
:1017CC0000AF00BFBD4680BC704780B400AF00BF07
:1017DC00BD4680BC704780B500AF00F07FF800BFFD
:1017EC0080BD000080B500AF024800F0C3FF00BF11
:1017FC0080BD00BFD400002080B400AF00BFBD4648
:10180C0080BC7047FFF7F8FF0B480C490C4A0023CB
:10181C0002E0D458C4500433C4188C42F9D3094A9A
:10182C00094C002301E013600432A242FBD301F007
:10183C00EDFAFFF725FD7047000000205400002052
:10184C00B42E00085400002020010020FEE7000008
:10185C0080B500AF084B1B68074A43F010031360B8
:10186C00032000F023F90F2000F008F8FFF73CFFED
:10187C000023184680BD00BF0020024080B582B016
:10188C0000AF7860124B1A68124B1B7819464FF454
:10189C007A73B3FBF1F3B2FBF3F3184600F03BF9A8
:1018AC000346002B01D001230EE07B680F2B0AD8D6
:1018BC00002279684FF0FF3000F003F9064A7B688C
:1018CC001360002300E0012318460837BD4680BD95
:1018DC0048000020500000204C00002080B400AFD5
:1018EC00054B1B781A46054B1B681344034A1360BF
:1018FC0000BFBD4680BC7047500000201C0100207A
:10190C0080B400AF024B1B681846BD4680BC7047C4
:10191C001C01002080B485B000AF78607B6803F0B8
:10192C000703FB600C4BDB68BB60BA684FF6FF0328
:10193C001340BB60FB681A02BB68134343F0BF63E0
:10194C0043F40033BB60044ABB68D36000BF143758
:10195C00BD4680BC704700BF00ED00E080B400AF16
:10196C00044BDB681B0A03F007031846BD4680BC1A
:10197C00704700BF00ED00E080B483B000AF0346B9
:10198C00FB7197F90730002B0BDBFB7903F01F027F
:10199C00064997F907305B09012000FA02F241F879
:1019AC00232000BF0C37BD4680BC704700E100E02F
:1019BC0080B483B000AF03463960FB7197F90730F0
:1019CC00002B0ADB3B68DAB20C4997F9073012019D
:1019DC00D2B20B4483F800230AE03B68DAB2084920
:1019EC00FB7903F00F03043B1201D2B20B441A76BD
:1019FC0000BF0C37BD4680BC704700BF00E100E063
:101A0C0000ED00E080B489B000AFF860B9607A6096
:101A1C00FB6803F00703FB61FB69C3F10703042BAD
:101A2C0028BF0423BB61FB690433062B02D9FB6975
:101A3C00033B00E000237B614FF0FF32BB6902FAED
:101A4C0003F3DA43BB681A407B699A404FF0FF31CD
:101A5C007B6901FA03F3D9437B680B4013431846A7
:101A6C002437BD4680BC704780B582B000AF78602B
:101A7C007B68013BB3F1807F01D301230FE00A4A5D
:101A8C007B68013B53600F214FF0FF30FFF790FF55
:101A9C00054B00229A60044B07221A60002318465B
:101AAC000837BD4680BD00BF10E000E080B582B0B5
:101ABC0000AF78607868FFF72DFF00BF0837BD4690
:101ACC0080BD80B586B000AF0346B9607A60FB7309
:101ADC0000237B61FFF742FF78617A68B968786907
:101AEC00FFF790FF024697F90F3011461846FFF7A3
:101AFC005FFF00BF1837BD4680BD80B582B000AF18
:101B0C000346FB7197F907301846FFF735FF00BF06
:101B1C000837BD4680BD80B582B000AF786078686C
:101B2C00FFF7A2FF034618460837BD4680BD0000EC
:101B3C0080B48BB000AF7860396000237B620023E7
:101B4C003B6248E101227B6A02FA03F3FB613B68CA
:101B5C001B68FA691340BB61BA69FB699A4240F091
:101B6C0037813B685B68A34A93425ED0A14A93429B
:101B7C0075D8A14A934258D09F4A93426FD89F4A36
:101B8C00934252D09D4A934269D89D4A93424CD07D
:101B9C009B4A934263D89B4A934246D0994A9342BC
:101BAC005DD8122B2AD8122B59D801A252F823F047
:101BBC00371C0008111C0008231C0008651C0008B9
:101BCC006B1C00086B1C00086B1C00086B1C0008CD
:101BDC006B1C00086B1C00086B1C00086B1C0008BD
:101BEC006B1C00086B1C00086B1C00086B1C0008AD
:101BFC006B1C0008191C00082D1C0008824A93421B
:101C0C0013D02CE03B68DB683B6229E03B68DB6867
:101C1C0004333B6224E03B68DB6808333B621FE023
:101C2C003B68DB680C333B621AE03B689B68002B1B
:101C3C0002D104233B6213E03B689B68012B05D166
:101C4C0008233B627B68FA691A6109E008233B624E
:101C5C007B68FA695A6103E000233B6200E000BF35
:101C6C00BB69FF2B01D87B6801E07B6804337B6187
:101C7C00BB69FF2B02D87B6A9B0002E07B6A083BA6
:101C8C009B003B617B691A680F213B6901FA03F3E6
:101C9C00DB431A40396A3B6901FA03F31A437B6947
:101CAC001A603B685B6803F08053002B00F0908057
:101CBC00564B9B69554A43F001039361534B9B6907
:101CCC0003F00103BB60BB68514A7B6A9B0802337B
:101CDC0052F82330FB607B6A03F003039B000F2256
:101CEC0002FA03F3DB43FA681340FB607B68494A52
:101CFC0093420DD07B68484A934207D07B68474A91
:101D0C00934201D1022304E0032302E0012300E00B
:101D1C0000237A6A02F0030292009340FA6813439C
:101D2C00FB603B497B6A9B080233FA6841F823202D
:101D3C003B685B6803F48013002B06D0384B9A6821
:101D4C003749BB6913438B6006E0354B9A68BB6916
:101D5C00DB43334913408B603B685B6803F400132F
:101D6C00002B06D02E4BDA682D49BB691343CB6090
:101D7C0006E02B4BDA68BB69DB4329491340CB6087
:101D8C003B685B6803F40033002B06D0244B5A6885
:101D9C002349BB6913434B6006E0214B5A68BB696E
:101DAC00DB431F4913404B603B685B6803F4803393
:101DBC00002B06D01A4B1A681949BB6913430B60E8
:101DCC0006E0174B1A68BB69DB43154913400B60DF
:101DDC007B6A01337B623B681A687B6A22FA03F3E5
:101DEC00002B7FF4AFAE00BF00BF2C37BD4680BCCC
:101DFC00704700BF000032100000311000002210AC
:101E0C000000211000001210000011100010024000
:101E1C000000014000080140000C0140001001408E
:101E2C000004014080B485B000AF78600B467B8025
:101E3C007B689A687B881340002B02D00123FB73CC
:101E4C0001E00023FB73FB7B18461437BD4680BCB6
:101E5C00704780B483B000AF78600B467B8013462C
:101E6C007B707B78002B03D07A887B681A6103E047
:101E7C007B881A047B681A6100BF0C37BD4680BC96
:101E8C007047000080B586B000AF78607B68002B8F
:101E9C0001D101236CE27B681B6803F00103002B6A
:101EAC0000F08780924B5B6803F00C03042B0CD082
:101EBC008F4B5B6803F00C03082B12D18C4B5B68C7
:101ECC0003F48033B3F5803F0BD1894B1B6803F4CB
:101EDC000033002B6CD07B685B68002B68D101232E
:101EEC0046E27B685B68B3F5803F06D1804B1B688C
:101EFC007F4A43F4803313602EE07B685B68002BD1
:101F0C000CD17B4B1B687A4A23F480331360784BDB
:101F1C001B68774A23F4802313601DE07B685B68A1
:101F2C00B3F5A02F0CD1724B1B68714A43F480237C
:101F3C0013606F4B1B686E4A43F4803313600BE0E5
:101F4C006B4B1B686A4A23F480331360684B1B6825
:101F5C00674A23F4802313607B685B68002B13D0E3
:101F6C00FFF7CEFC386108E0FFF7CAFC02463B697C
:101F7C00D31A642B01D90323FAE15D4B1B6803F4DC
:101F8C000033002BF0D014E0FFF7BAFC386108E006
:101F9C00FFF7B6FC02463B69D31A642B01D9032325
:101FAC00E6E1534B1B6803F40033002BF0D100E047
:101FBC0000BF7B681B6803F00203002B63D04C4B03
:101FCC005B6803F00C03002B0BD0494B5B6803F0F0
:101FDC000C03082B1CD1464B5B6803F48033002B9D
:101FEC0016D1434B1B6803F00203002B05D07B6812
:101FFC001B69012B01D00123BAE13D4B1B6823F077
:10200C00F8027B685B69DB00394913430B603AE0EB
:10201C007B681B69002B20D0364B01221A60FFF71E
:10202C006FFC386108E0FFF76BFC02463B69D31A82
:10203C00022B01D903239BE12D4B1B6803F00203F8
:10204C00002BF0D02A4B1B6823F0F8027B685B69ED
:10205C00DB00274913430B6015E0264B00221A6066
:10206C00FFF74EFC386108E0FFF74AFC02463B697B
:10207C00D31A022B01D903237AE11D4B1B6803F001
:10208C000203002BF0D17B681B6803F00803002BC4
:10209C003AD07B689B69002B19D0174B01221A6030
:1020AC00FFF72EFC386108E0FFF72AFC02463B697B
:1020BC00D31A022B01D903235AE10D4B5B6A03F0AF
:1020CC000203002BF0D0012000F09AFA1CE00A4B1E
:1020DC0000221A60FFF714FC38610FE0FFF710FCC8
:1020EC0002463B69D31A022B08D9032340E100BFF7
:1020FC000010024000004242800442429E4B5B6A48
:10210C0003F00203002BE9D17B681B6803F0040386
:10211C00002B00F0A6800023FB75974BDB6903F0C6
:10212C008053002B0DD1944BDB69934A43F08053C1
:10213C00D361914BDB6903F08053BB60BB68012317
:10214C00FB758E4B1B6803F48073002B18D18B4BE3
:10215C001B688A4A43F480731360FFF7D1FB386124
:10216C0008E0FFF7CDFB02463B69D31A642B01D97B
:10217C000323FDE0814B1B6803F48073002BF0D02C
:10218C007B68DB68012B06D17B4B1B6A7A4A43F0D8
:10219C00010313622DE07B68DB68002B0CD1764BBE
:1021AC001B6A754A23F001031362734B1B6A724A54
:1021BC0023F0040313621CE07B68DB68052B0CD155
:1021CC006D4B1B6A6C4A43F0040313626A4B1B6A27
:1021DC00694A43F0010313620BE0674B1B6A664AC2
:1021EC0023F001031362644B1B6A634A23F004035C
:1021FC0013627B68DB68002B15D0FFF781FB38611D
:10220C000AE0FFF77DFB02463B69D31A41F28832A4
:10221C00934201D90323ABE0574B1B6A03F0020333
:10222C00002BEED014E0FFF76BFB38610AE0FFF7F0
:10223C0067FB02463B69D31A41F28832934201D9BB
:10224C00032395E04C4B1B6A03F00203002BEED1E9
:10225C00FB7D012B05D1484BDB69474A23F08053AA
:10226C00D3617B68DB69002B00F08180424B5B689B
:10227C0003F00C03082B61D07B68DB69022B46D181
:10228C003F4B00221A60FFF73BFB386108E0FFF779
:10229C0037FB02463B69D31A022B01D9032367E0B3
:1022AC00354B1B6803F00073002BF0D17B681B6A65
:1022BC00B3F5803F08D1304B5B6823F400327B6868
:1022CC009B682D4913434B602B4B5B6823F47412B2
:1022DC007B68196A7B685B6A0B43274913434B6025
:1022EC00274B01221A60FFF70BFB386108E0FFF760
:1022FC0007FB02463B69D31A022B01D9032337E0B3
:10230C001D4B1B6803F00073002BF0D02FE01C4B0F
:10231C0000221A60FFF7F4FA386108E0FFF7F0FAD0
:10232C0002463B69D31A022B01D9032320E0124B3E
:10233C001B6803F00073002BF0D118E07B68DB699D
:10234C00012B01D1012313E00B4B5B68FB60FB6895
:10235C0003F480327B681B6A9A4206D1FB6803F453
:10236C0070127B685B6A9A4201D0012300E0002363
:10237C0018461837BD4680BD001002400070004062
:10238C006000424280B584B000AF786039607B68F1
:10239C00002B01D10123D0E06A4B1B6803F007032B
:1023AC003A689A4210D9674B1B6823F007026549BB
:1023BC003B6813430B60634B1B6803F007033A68DD
:1023CC009A4201D00123B8E07B681B6803F002033A
:1023DC00002B20D07B681B6803F00403002B05D076
:1023EC00594B5B68584A43F4E06353607B681B6845
:1023FC0003F00803002B05D0534B5B68524A43F49F
:10240C0060535360504B5B6823F0F0027B689B6811
:10241C004D4913434B607B681B6803F00103002B91
:10242C0040D07B685B68012B07D1474B1B6803F4DA
:10243C000033002B15D101237FE07B685B68022BF6
:10244C0007D1414B1B6803F00073002B09D101230A
:10245C0073E03D4B1B6803F00203002B01D10123F9
:10246C006BE0394B5B6823F003027B685B68364991
:10247C0013434B60FFF744FAF8600AE0FFF740FAA9
:10248C000246FB68D31A41F28832934201D90323E6
:10249C0053E02D4B5B6803F00C027B685B689B0080
:1024AC009A42EBD1274B1B6803F007033A689A4218
:1024BC0010D2244B1B6823F0070222493B681343BC
:1024CC000B60204B1B6803F007033A689A4201D05B
:1024DC00012332E07B681B6803F00403002B08D057
:1024EC00194B5B6823F4E0627B68DB681649134385
:1024FC004B607B681B6803F00803002B09D0124B60
:10250C005B6823F460527B681B69DB000E49134344
:10251C004B6000F021F802460B4B5B681B0903F083
:10252C000F030A49CB5C22FA03F3094A1360094BE7
:10253C001B681846FFF7A2F9002318461037BD4652
:10254C0080BD00BF0020024000100240882E000811
:10255C00480000204C00002080B487B000AF00235E
:10256C00FB600023BB6000237B6100237B600023A6
:10257C003B611E4B5B68FB60FB6803F00C03042B98
:10258C0002D0082B03D027E0194B3B6127E0FB68F6
:10259C009B0C03F00F03174AD35C7B60FB6803F4BE
:1025AC008033002B10D0114B5B685B0C03F00103E4
:1025BC00114AD35CBB607B680D4A02FB03F2BB681B
:1025CC00B2FBF3F37B6104E07B680C4A02FB03F380
:1025DC007B617B693B6102E0054B3B6100BF3B6962
:1025EC0018461C37BD4680BC704700BF0010024027
:1025FC0000127A00982E0008A82E000800093D0051
:10260C0080B485B000AF78600A4B1B680A4AA2FB05
:10261C0003235B0A7A6802FB03F3FB6000BFFB68D1
:10262C005A1EFA60002BF9D100BF00BF1437BD460B
:10263C0080BC704748000020D34D621080B582B03A
:10264C0000AF78607B68002B01D1012341E07B68EF
:10265C0093F83D30DBB2002B06D17B68002283F867
:10266C003C207868FFF772F87B68022283F83D20E3
:10267C007B681A687B6804331946104600F06EFAC2
:10268C007B68012283F846207B68012283F83E2078
:10269C007B68012283F83F207B68012283F840206D
:1026AC007B68012283F841207B68012283F8422059
:1026BC007B68012283F843207B68012283F8442045
:1026CC007B68012283F845207B68012283F83D203A
:1026DC00002318460837BD4680BD000080B485B085
:1026EC0000AF78607B6893F83D30DBB2012B01D0F2
:1026FC00012335E07B68022283F83D207B681B6850
:10270C00DA687B681B6842F00102DA607B681B6840
:10271C00164A934209D07B681B68B3F1804F04D0F2
:10272C007B681B68124A934211D17B681B689B68BB
:10273C0003F00703FB60FB68062B10D07B681B685B
:10274C001A687B681B6842F001021A6007E07B681C
:10275C001B681A687B681B6842F001021A60002330
:10276C0018461437BD4680BC704700BF002C014092
:10277C000004004080B582B000AF78607B681B68B5
:10278C001B6903F00203022B22D17B681B68DB68F8
:10279C0003F00203022B1BD17B681B686FF0020253
:1027AC001A617B6801221A777B681B689B6903F0AE
:1027BC000303002B03D0786800F0B4F905E07868C7
:1027CC0000F0A7F9786800F0B6F97B6800221A7758
:1027DC007B681B681B6903F00403042B22D17B6804
:1027EC001B68DB6803F00403042B1BD17B681B689C
:1027FC006FF004021A617B6802221A777B681B68EF
:10280C009B6903F44073002B03D0786800F08AF9BD
:10281C0005E0786800F07DF9786800F08CF97B6849
:10282C0000221A777B681B681B6903F00803082BCE
:10283C0022D17B681B68DB6803F00803082B1BD1D3
:10284C007B681B686FF008021A617B6804221A7798
:10285C007B681B68DB6903F00303002B03D07868EB
:10286C0000F060F905E0786800F053F9786800F042
:10287C0062F97B6800221A777B681B681B6903F07E
:10288C001003102B22D17B681B68DB6803F010034C
:10289C00102B1BD17B681B686FF010021A617B68D0
:1028AC0008221A777B681B68DB6903F44073002BE2
:1028BC0003D0786800F036F905E0786800F029F963
:1028CC00786800F038F97B6800221A777B681B68FF
:1028DC001B6903F00103012B0ED17B681B68DB68BD
:1028EC0003F00103012B07D17B681B686FF0010219
:1028FC001A617868FEF7D8FD7B681B681B6903F0CA
:10290C008003802B0ED17B681B68DB6803F080038F
:10291C00802B07D17B681B686FF080021A61786886
:10292C0000F06BFA7B681B681B6903F04003402BBB
:10293C000ED17B681B68DB6803F04003402B07D18A
:10294C007B681B686FF040021A61786800F0FCF835
:10295C007B681B681B6903F02003202B0ED17B685E
:10296C001B68DB6803F02003202B07D17B681B68F6
:10297C006FF020021A61786800F036FA00BF083751
:10298C00BD4680BD80B584B000AF7860396000234F
:10299C00FB737B6893F83C30012B01D10223B4E02C
:1029AC007B68012283F83C207B68022283F83D205F
:1029BC007B681B689B68BB60BB6823F07703BB60BC
:1029CC00BB6823F47F43BB607B681B68BA689A6062
:1029DC003B681B68B3F5005F3ED0B3F5005F00F2B7
:1029EC008780B3F5805F00F08680B3F5805F7FD879
:1029FC00702B1AD0702B7BD8602B50D0602B77D8D3
:102A0C00502B3CD0502B73D8402B58D0402B6FD828
:102A1C00302B64D0302B6BD8202B60D0202B67D878
:102A2C00002B5CD0102B5AD062E07B6818683B6896
:102A3C0099683B685A683B68DB6800F05EF97B6814
:102A4C001B689B68BB60BB6843F07703BB607B680B
:102A5C001B68BA689A604FE07B6818683B68996895
:102A6C003B685A683B68DB6800F047F97B681B6879
:102A7C009A687B681B6842F480429A603CE07B68F1
:102A8C0018683B6859683B68DB681A4600F0BEF86A
:102A9C007B681B685021184600F015F92CE07B6808
:102AAC0018683B6859683B68DB681A4600F0DCF82C
:102ABC007B681B686021184600F005F91CE07B68F8
:102ACC0018683B6859683B68DB681A4600F09EF84A
:102ADC007B681B684021184600F0F5F80CE07B6819
:102AEC001A683B681B681946104600F0ECF803E0C6
:102AFC000123FB7300E000BF7B68012283F83D20BB
:102B0C007B68002283F83C20FB7B18461037BD46BF
:102B1C0080BD80B483B000AF786000BF0C37BD4679
:102B2C0080BC704780B483B000AF786000BF0C37B6
:102B3C00BD4680BC704780B483B000AF786000BFE6
:102B4C000C37BD4680BC704780B483B000AF786052
:102B5C0000BF0C37BD4680BC7047000080B485B008
:102B6C0000AF786039607B681B68FB607B68254A26
:102B7C00934207D07B68B3F1804F03D07B68224A25
:102B8C00934208D1FB6823F07003FB603B685B68E1
:102B9C00FA681343FB607B681A4A934207D07B6840
:102BAC00B3F1804F03D07B68174A934208D1FB687E
:102BBC0023F44073FB603B68DB68FA681343FB60EB
:102BCC00FB6823F080023B685B691343FB607B6806
:102BDC00FA681A603B689A687B68DA623B681A6824
:102BEC007B689A627B68074A934203D13B681A69F7
:102BFC007B681A637B6801225A6100BF1437BD469B
:102C0C0080BC7047002C01400004004080B487B0A9
:102C1C0000AFF860B9607A60FB681B6A7B61FB6887
:102C2C001B6A23F00102FB681A62FB689B693B611B
:102C3C003B6923F0F0033B617B681B013A6913434A
:102C4C003B617B6923F00A037B617A69BB681343A0
:102C5C007B61FB683A699A61FB687A691A6200BF0A
:102C6C001C37BD4680BC704780B487B000AFF8609D
:102C7C00B9607A60FB681B6A7B61FB681B6A23F096
:102C8C001002FB681A62FB689B693B613B6923F489
:102C9C0070433B617B681B033A6913433B617B695F
:102CAC0023F0A0037B61BB681B017A6913437B6132
:102CBC00FB683A699A61FB687A691A6200BF1C3733
:102CCC00BD4680BC704780B485B000AF7860396079
:102CDC007B689B68FB60FB6823F07003FB603A68C1
:102CEC00FB68134343F00703FB607B68FA689A6048
:102CFC0000BF1437BD4680BC704780B487B000AFAE
:102D0C00F860B9607A603B60FB689B687B617B69AB
:102D1C0023F47F437B613B681A027B681A43BB68D0
:102D2C0013437A6913437B61FB687A699A6000BF2D
:102D3C001C37BD4680BC704780B485B000AF78604E
:102D4C0039607B6893F83C30012B01D1022341E0C0
:102D5C007B68012283F83C207B68022283F83D20AB
:102D6C007B681B685B68FB607B681B689B68BB604F
:102D7C00FB6823F07003FB603B681B68FA68134325
:102D8C00FB607B681B68FA685A607B681B68144A96
:102D9C00934209D07B681B68B3F1804F04D07B68E9
:102DAC001B68104A93420CD1BB6823F08003BB60B4
:102DBC003B685B68BA681343BB607B681B68BA6886
:102DCC009A607B68012283F83D207B68002283F89F
:102DDC003C20002318461437BD4680BC704700BF0A
:102DEC00002C01400004004080B483B000AF786038
:102DFC0000BF0C37BD4680BC704780B483B000AFB9
:102E0C00786000BF0C37BD4680BC704770B500269B
:102E1C000C4D0D4C641BA410A64209D100F022F8F5
:102E2C0000260A4D0A4C641BA410A64205D170BDA5
:102E3C0055F8043B98470136EEE755F8043B9847A4
:102E4C000136F2E7AC2E0008AC2E0008AC2E0008C0
:102E5C00B02E000803460244934200D1704703F899
:102E6C00011BF9E7F8B500BFF8BC08BC9E467047DB
:0C2E7C00F8B500BFF8BC08BC9E467047CB
:102E88000000000000000000010203040607080912
:102E980002030405060708090A0B0C0D0E0F101093
:042EA8000102000023
:042EAC0031010008E8
:042EB0000D01000808
:102EB400010000000100000001000000010000000A
:102EC400F401000001000000010000000100000006
:102ED40001000000F40100000100000001000000F6
:102EE4000100000001000000F401000003000000E4
:102EF40005000000020000000024F400100000009F
:042F040001000000C8
:0400000508001811C6
:00000001FF
